{
  "contractName": "SukiToken",
  "abi": [
    {
      "constant": true,
      "inputs": [],
      "name": "totalSupply",
      "outputs": [
        {
          "name": "",
          "type": "uint256"
        }
      ],
      "payable": false,
      "stateMutability": "view",
      "type": "function"
    },
    {
      "inputs": [],
      "payable": false,
      "stateMutability": "nonpayable",
      "type": "constructor"
    }
  ],
  "bytecode": "0x6080604052348015600f57600080fd5b5062989680600081905550607b806100286000396000f3fe6080604052348015600f57600080fd5b506004361060285760003560e01c806318160ddd14602d575b600080fd5b60336049565b6040518082815260200191505060405180910390f35b6000548156fea165627a7a72305820d5492fd1f4fda531621a95a2fa340b9095ace4cbbbcb22b56f403301b4004c370029",
  "source": "pragma solidity >=0.4.21 <0.6.0;\n\ncontract SukiToken {\n    // Constructor\n    // Set the total numbers of tokens\n    // Read the total numbers of tokens\n\n    uint256 public totalSupply;\n\n    constructor() public {\n        totalSupply = 10000000;\n        // totalSupply comes from the ec20 standart\n    }\n\n\n}",
  "sourcePath": "/Users/abundis/Documents/Projects/criptos/suki_token/contracts/SukiToken.sol",
  "compiler": {
    "name": "solc",
    "version": "0.5.8+commit.23d335f2.Emscripten.clang"
  },
  "schemaVersion": "3.0.16",
  "updatedAt": "2019-09-13T03:55:32.955Z",
  "devdoc": {
    "methods": {}
  },
  "userdoc": {
    "methods": {}
  }
}